:100000000C9462000C948A000C948A000C948A0070
:100010000C948A000C948A000C948A000C948A0038
:100020000C948A000C948A000C948A000C948A0028
:100030000C948A000C948A000C948A000C948A0018
:100040000C94D6000C948A000C94AC030C94DE0340
:100050000C948A000C948A000C948A000C948A00F8
:100060000C948A000C948A00000000080002010031
:100070000003040700000000000000000102040863
:100080001020408001020408102001020408102002
:10009000040404040404040402020202020203032E
:1000A00003030303000000002300260029000000D2
:1000B0000000250028002B0000000000240027007D
:1000C0002A000E0411241FBECFEFD8E0DEBFCDBF43
:1000D00011E0A0E0B1E0E8E6F9E002C005900D9281
:1000E000A631B107D9F721E0A6E1B1E001C01D9228
:1000F000A13CB207E1F710E0C4ECD0E004C02297C5
:10010000FE010E94AE04C23CD107C9F70E947A04E6
:100110000C94B2040C94000060E0809104010E94F1
:10012000CF0161E0809102010E94CF0126E040E80A
:1001300055E260E070E084E291E00C944A03809123
:1001400004010E943E0290930101809300012091DE
:100150001901009781F08130910539F4211105C012
:1001600020911801211103C008C0211102C060E0D4
:1001700005C0209118012223D1F361E0609317019B
:1001800021E0019709F020E0209316016093190106
:100190002093180160931A01809102010E940802C5
:1001A00064E670E080E090E00C9443011F920F92AF
:1001B0000FB60F9211242F933F938F939F93AF937A
:1001C000BF9380911C0190911D01A0911E01B091DF
:1001D0001F0130911B0123E0230F2D3720F40196DE
:1001E000A11DB11D05C026E8230F0296A11DB11D5A
:1001F00020931B0180931C0190931D01A0931E016D
:10020000B0931F018091200190912101A0912201C2
:10021000B09123010196A11DB11D809320019093FF
:100220002101A0932201B0932301BF91AF919F912F
:100230008F913F912F910F900FBE0F901F901895A7
:100240003FB7F8948091200190912101A091220163
:10025000B091230126B5A89B05C02F3F19F0019648
:10026000A11DB11D3FBF6627782F892F9A2F620FDE
:10027000711D811D911D42E0660F771F881F991F18
:100280004A95D1F70895CF92DF92EF92FF92CF93E4
:10029000DF936B017C010E942001EB01C114D104AA
:1002A000E104F10489F00E9489040E9420016C1B82
:1002B0007D0B683E734090F381E0C81AD108E108D5
:1002C000F108C851DC4FEACFDF91CF91FF90EF905A
:1002D000DF90CF900895789484B5826084BD84B512
:1002E000816084BD85B5826085BD85B5816085BD31
:1002F000EEE6F0E0808181608083E1E8F0E010824A
:10030000808182608083808181608083E0E8F0E08A
:10031000808181608083E1EBF0E080818460808374
:10032000E0EBF0E0808181608083EAE7F0E08081AB
:10033000846080838081826080838081816080830B
:100340008081806880831092C1000895833081F09D
:1003500028F4813099F08230A1F008958730A9F017
:100360008830B9F08430D1F4809180008F7D03C053
:10037000809180008F7780938000089584B58F7777
:1003800002C084B58F7D84BD08958091B0008F77C1
:1003900003C08091B0008F7D8093B0000895CF930B
:1003A000DF9390E0FC01E458FF4F2491FC01E057FB
:1003B000FF4F8491882349F190E0880F991FFC0139
:1003C000E854FF4FA591B49182559F4FFC01C59110
:1003D000D4919FB7611108C0F8948C912095822325
:1003E0008C93888182230AC0623051F4F8948C91F6
:1003F000322F309583238C938881822B888304C08D
:10040000F8948C91822B8C939FBFDF91CF910895AC
:100410000F931F93CF93DF931F92CDB7DEB7282F93
:1004200030E0F901E859FF4F8491F901E458FF4F9A
:100430001491F901E057FF4F04910023C9F088237C
:1004400021F069830E94A6016981E02FF0E0EE0FA0
:10045000FF1FE255FF4FA591B4919FB7F8948C917F
:10046000611103C01095812301C0812B8C939FBF24
:100470000F90DF91CF911F910F910895CF93DF934C
:10048000282F30E0F901E859FF4F8491F901E45831
:10049000FF4FD491F901E057FF4FC491CC2391F065
:1004A00081110E94A601EC2FF0E0EE0FFF1FEC552A
:1004B000FF4FA591B4912C912D2381E090E021F480
:1004C00080E002C080E090E0DF91CF910895FC01D0
:1004D000818D228D90E0805C9F4F821B91098F73EC
:1004E00099270895FC01918D828D981731F0828DA6
:1004F000E80FF11D858D90E008958FEF9FEF08952F
:10050000FC01918D828D981761F0828DDF01A80F1B
:10051000B11D5D968C91928D9F5F9F73928F90E03D
:1005200008958FEF9FEF089584E094E0892B49F0C0
:1005300080E090E0892B29F00E94040481110C9442
:1005400000000895FC01848DDF01A80FB11DA35A9E
:10055000BF4F2C91848D90E001968F739927848FE3
:10056000A689B7892C93A089B1898C9180648C93DA
:10057000938D848D981306C00288F389E02D8081C5
:100580008F7D80830895CF93DF93EC01888D88233E
:10059000C9F0EA89FB89808185FD05C0A889B989F0
:1005A0008C9186FD0FC00FB607FCF5CF808185FFCB
:1005B000F2CFA889B9898C9185FFEDCFCE010E9439
:1005C000A202E7CFDF91CF910895CF92DF92FF9201
:1005D0000F931F93CF93DF931F92CDB7DEB76C01BC
:1005E00081E0D60158968C9358975B969C915B97C7
:1005F0005C968C915C97981307C05096ED91FC9196
:100600005197808185FD2EC0F601038D10E00F5FAC
:100610001F4F0F731127F02EF601848DF81211C0B1
:100620000FB607FCF9CFD6015096ED91FC9151978A
:10063000808185FFF1CFC60169830E94A202698192
:10064000EBCF838DE80FF11DE35AFF4F6083D60196
:100650005B960C935B975296ED91FC91539780813A
:1006600080620CC0D6015696ED91FC91579760833D
:100670005096ED91FC91519780818064808381E058
:1006800090E00F90DF91CF911F910F91FF90DF903D
:10069000CF900895BF92CF92DF92EF92FF92CF93C7
:1006A000DF93EC016A017B01B22EE889F98982E0CF
:1006B0008083411581EE580761057105A1F060E066
:1006C00079E08DE390E0A70196010E948A04215011
:1006D00031094109510956954795379527952115B7
:1006E00080E1380798F0E889F989108260E874E8B9
:1006F0008EE190E0A70196010E948A042150310901
:10070000410951095695479537952795EC85FD8503
:100710003083EE85FF852083188EEC89FD89B082B9
:10072000EA89FB89808180618083EA89FB898081F5
:1007300088608083EA89FB89808180688083EA8978
:10074000FB8980818F7D8083DF91CF91FF90EF9037
:10075000DF90CF90BF9008951F920F920FB60F9227
:1007600011242F938F939F93EF93FF93E091340184
:10077000F09135018081E0913A01F0913B0182FDD9
:1007800012C0908180913D018F5F8F7320913E0157
:10079000821751F0E0913D01F0E0EC5DFE4F958F46
:1007A00080933D0101C08081FF91EF919F918F91D6
:1007B0002F910F900FBE0F901F9018951F920F92C0
:1007C0000FB60F9211242F933F934F935F936F9324
:1007D0007F938F939F93AF93BF93EF93FF9384E2A5
:1007E00091E00E94A202FF91EF91BF91AF919F9182
:1007F0008F917F916F915F914F913F912F910F90CA
:100800000FBE0F901F90189584E291E00E9467023E
:1008100021E0892B09F420E0822F0895109227010E
:100820001092260188EE93E0A0E0B0E080932801CA
:1008300090932901A0932A01B0932B018AE091E0C3
:10084000909325018093240185EC90E090933101F1
:100850008093300184EC90E09093330180933201D7
:1008600080EC90E0909335018093340181EC90E02E
:10087000909337018093360182EC90E09093390198
:100880008093380186EC90E090933B0180933A018D
:1008900010923D0110923E0110923F0110924001D2
:1008A0000895CF92DF92EF92FF920F931F93CF9311
:1008B000DF937C016A01EB0100E010E00C151D05DF
:1008C00071F06991D701ED91FC910190F081E02DDB
:1008D000C7010995892B19F00F5F1F4FEFCFC80192
:1008E000DF91CF911F910F91FF90EF90DF90CF900C
:1008F000089508950E946B010E9479040E948C0063
:10090000C4E9D2E00E949F002097E1F30E94940284
:10091000F9CF0895A1E21A2EAA1BBB1BFD010DC041
:10092000AA1FBB1FEE1FFF1FA217B307E407F5079F
:1009300020F0A21BB30BE40BF50B661F771F881F7B
:10094000991F1A9469F760957095809590959B0111
:10095000AC01BD01CF010895EE0FFF1F0590F4918A
:08096000E02D0994F894FFCF8B
:10096800010005000C0000000000E50251046702C8
:0609780080027202C302BE
:00000001FF
